:1000000012C02AC029C028C027C026C025C024C0CD
:1000100023C022C021C020C01FC01EC01DC01CC0E4
:100020001BC01AC019C011241FBECFEDCDBF10E0F8
:10003000A0E6B0E0E0E2F7E002C005900D92A6363F
:10004000B107D9F720E0A6E6B0E001C01D92A836BE
:10005000B207E1F709D362C3D3CFFB019C012B5F49
:100060003F4FDC015D91CD014191541306C0A217B1
:10007000B307B9F780E090E0089582E090E008953A
:10008000CF93C62FC498880F8E77CDD28C2FCBD22A
:10009000C49ACF910895C498880F8E778068C3D290
:1000A00080E0C1D2C49A0895CF93DF93D82FC62F92
:1000B000F2DF682F6C2B8D2FDF91CF91E1CFCF93A3
:1000C000DF93D82FC62FE7DFC0956C2F68238D2FC5
:1000D000DF91CF91D5CF84E1DEDF837019F463E047
:1000E00084E1E2CF089563E084E1E9CF6FE081E04D
:1000F000C7CFFCDF6DE88AE2C3DF6EE38BE2C0DFCF
:100100006EE18DE2BDDF60E08CE2BADF60E786E29F
:10011000B7DF60E485E1B4DF6DE381E1B1DFDBCF20
:100120006F927F928F929F92AF92BF92CF92DF9207
:10013000EF92FF920F931F93CF93DF93D82E4B0133
:10014000A42EE9018CE0D81631F0EEE0DE1641F085
:10015000E12CF12C09C0F0E3EF2EA7E7FA2E04C042
:1001600070E1E72EE2E1FE2E6F2D606882E088DF0D
:1001700060E884E0A4DF60E88AE096DF60E081E088
:100180007FDF3401B12CC301881999098A159B05B9
:1001900030F4F30161913F0189E072DFF4CF6D2DFE
:1001A00081E06EDFFCE0DF1203C060E88DE07CDF01
:1001B00060EDA62E67E0B62E8E2D8160E82E84E0DD
:1001C0006ADFC82EE1E0AE1AB10819F08E2D8C213D
:1001D000B1F360E88DE073DFAB2821F452E0F52E37
:1001E000E12C40C086E057DF8B71C1F7FC20F0FAAC
:1001F000FF24F0F8E12CFCE0DF1234C08AE04BDF92
:10020000D82E8CE048DF87702D2D30E051F0215042
:10021000310943E0220F331F4A95E1F7280F311DC2
:1002200005C093E0220F331F9A95E1F7F80131835F
:100230002083DD2031F0F0E1FD1528F480E1D82E97
:1002400002C0DD24D3945E010D2D10E0C5018C1B8E
:100250009D0B8017910730F489E01DDFF501819334
:100260005F01F4CF8F2D9E2DDF91CF911F910F91C4
:10027000FF90EF90DF90CF90BF90AF909F908F90C6
:100280007F906F900895EF92FF920F931F93CF93FB
:10029000DF9300D0CDB7DD27182F7B0167E08DE01D
:1002A000EFDEF70110838E010F5F1F4F970141E0D2
:1002B000B7018CE035DF009729F429813A8120319C
:1002C000310511F082E090E0CE5FCDBFDF91CF919C
:1002D0001F910F91FF90EF900895EF92FF920F936F
:1002E0001F93CF93DF9300D0CDB7DD277C0160E073
:1002F0008DE0C6DE83E9F701808380E281838E0191
:100300000F5F1F4F970142E0B7018CE009DF0097B4
:1003100081F4F701A7014C5F5F4F20E03191232763
:10032000E417F507D9F7F7013481231711F082E0BC
:1003300090E0CE5FCDBFDF91CF911F910F91FF90E5
:10034000EF900895DF92EF92FF920F931F93CF9358
:10035000DF93D82EE92EF62E8A0164E085E0AFDE29
:1003600060E88AE0A1DECD2DDE2DCE018F0D911D3E
:100370007C01CE15DF0521F0699189E081DEF9CF9E
:1003800063E081E07DDECFEF85E085DEC15011F0D6
:1003900082FFFACF82E27FDEF801808381E27BDE9A
:1003A000F8018183DF91CF911F910F91FF90EF9022
:1003B000DF9008950F931F93CF93DF93CDB7DD2781
:1003C000CB50CDBF23E9298320E72A83AE014D5FBF
:1003D0005F4F9E01285F3F4FFC016191CF01FA0101
:1003E0006193AF01E217F307B9F767E0CE01019619
:1003F000A9DF8E01065F1F4F9E012F5F3F4F49E02F
:10040000B9018CE08DDE892B31F48A859B85489774
:1004100011F4898101C080E0C55FCDBFDF91CF912C
:100420001F910F9108950F931F93CF93DF93CDB733
:10043000DD27CE50CDBF89836A83BA01CE010396F2
:10044000FE013996DB014D91BD01DC014D93CD01DB
:10045000AE17BF07B9F7D901CE010D962D912193A3
:10046000E817F907D9F78F019E012F5F3F4F4CE046
:10047000B9018EE055DE8C01892B21F488E00BDE7A
:1004800083FD02C002E010E0C801C25FCDBFDF9172
:10049000CF911F910F910895EF92FF920F931F93A9
:1004A000CF93DF9300D0CDB7DD277B0190E3FB0135
:1004B00090838183AB014E5F5F4F62E0C70142DFF3
:1004C0008E010F5F1F4F970144E0B7018CE028DEDB
:1004D000009729F429813A812039310511F082E011
:1004E00090E0CE5FCDBFDF91CF911F910F91FF9034
:1004F000EF900895EF92FF920F931F93CF93DF93A6
:10050000CDB7DD27C451CDBF7B0190EA99838A83A3
:10051000AE014D5F5F4F62E0CE01019613DF8E01A9
:100520000D5E1F4F9E012F5F3F4F44E0B9018CE0ED
:10053000F7DD892B71F58B899C89049751F58981A9
:100540008F708A3031F5F701AE014F5F5F4FCE01FA
:1005500041962191DA012D93AD01A817B907C9F78A
:1005600060E1CE010196EEDE8E010D5E1F4F9E0111
:100570002F5F3F4F42E1B9018CE0D2DD009749F493
:100580002B893C892430310521F429812F702A30B0
:1005900011F082E090E0CC5ECDBFDF91CF911F9152
:1005A0000F91FF90EF9008950F931F93CF93DF93D8
:1005B000CDB7DD27C650CDBF80E589831A82AE0155
:1005C0004D5F5F4F62E0CE010196BCDE8E010B5F96
:1005D0001F4F9E012F5F3F4F44E0B9018CE0A0DD2B
:1005E000CA5FCDBFDF91CF911F910F9108950F93F7
:1005F0001F93CF93DF938C01BC0186E244DEEC01B4
:10060000892B19F4C80169DEEC01CEDFCE01DF9140
:10061000CF911F910F910895BD9887B3806D87BBCF
:100620008AE18DB908958FB980E48EB98BE18DB9D7
:10063000769BFDCF8FB1089512B88CE089B9599A95
:10064000539A83B1866083B908955D9BFECF8CB9C0
:100650000895CF93DF93EC018991882311F0F5DFA2
:10066000FBCFDF91CF910895CF93DF93CDB7DD27F7
:10067000CA50CDBFD1DF3DDD85E0E0E6F0E0DE0130
:10068000119601900D928A95E1F7D19AD99A8A989C
:10069000929A12E082E0E82EF12C8091660090910F
:1006A00067000097A1F42FEF81EE94E02150804085
:1006B0009040E1F700C00000D99A8BE792E90197DA
:1006C000F1F700C000008BB31BBA80B3E6CF8130D6
:1006D0009105D9F48BB381278BBB83E294EF01970B
:1006E000F1F700C00000CE01069681DF892BA9F644
:1006F000BE016F5F7F4FCE010696AFDC892B69F696
:10070000F0926700E0926600C8CF029731F6829BB4
:10071000C4CF1092670010926600BFCFF894FFCF4D
:0607200042BE24D90100D5
:00000001FF
